:020000040000FA
:100000000C945D000C9485000C9485000C94850084
:100010000C9485000C9485000C9485000C9485004C
:100020000C9485000C9485000C9485000C9485003C
:100030000C9485000C9485000C9485000C9485002C
:100040000C942F030C9485000C9485000C9485006F
:100050000C9485000C9485000C9485000C9485000C
:100060000C9485000C94850000000008000201003B
:100070000003040700000000000000000000000072
:10008000250028002B0000000000240027002A0083
:10009000040404040404040402020202020203032E
:1000A0000303030301020408102040800102040836
:1000B0001020010204081020FF0411241FBECFEFFE
:1000C000D8E0DEBFCDBF11E0A0E0B1E0E2E2FEE0AB
:1000D00002C005900D92A834B107D9F721E0A8E439
:1000E000B1E001C01D92A936B207E1F710E0CDE5FD
:1000F000D0E004C02197FE010E940907CC35D1074A
:10010000C9F70E9479030C940F070C94000090E04B
:10011000FC01EC55FF4F249180579F4FFC018491C7
:10012000882399F090E0880F991FFC01EA57FF4F50
:10013000A591B491FC01E458FF4F859194918FB73C
:10014000F894EC91E22BEC938FBF089590E0FC01C2
:10015000E859FF4F2491FC01EC55FF4F3491FC010D
:10016000E057FF4FE491EE23C9F0222339F023300A
:1001700001F1A8F4213019F1223029F1F0E0EE0F5D
:10018000FF1FE458FF4FA591B4918FB7F894EC91FD
:10019000611126C030953E233C938FBF08952730D0
:1001A000A9F02830C9F0243049F7809180008F7D74
:1001B00003C0809180008F7780938000DFCF84B56B
:1001C0008F7784BDDBCF84B58F7DFBCF8091B0006E
:1001D0008F778093B000D2CF8091B0008F7DF9CF20
:1001E0003E2BDACF8E50806480937C0080917A0021
:1001F000806480937A0080917A0086FDFCCF8091A4
:1002000078009091790008953FB7F89480914D015E
:1002100090914E01A0914F01B091500126B5A89B3D
:1002200005C02F3F19F00196A11DB11D3FBFBA2F88
:10023000A92F982F8827BC01CD01620F711D811D48
:10024000911D42E0660F771F881F991F4A95D1F7CD
:1002500008958F929F92AF92BF92CF92DF92EF92CA
:10026000FF924B015C010E9404016B017C010E9422
:1002700004016C197D098E099F09683E7340810550
:100280009105A8F321E0821A9108A108B10888EE2F
:10029000C80E83E0D81EE11CF11C81149104A10456
:1002A000B10429F7FF90EF90DF90CF90BF90AF900F
:1002B0009F908F900895AF92BF92CF92DF92EF926E
:1002C000FF920F931F93CF93DF936C017B018B0100
:1002D000040F151FEB015E01AE18BF08C017D10750
:1002E00059F06991D601ED91FC910190F081E02DDA
:1002F000C6010995892B79F7C501DF91CF911F912F
:100300000F91FF90EF90DF90CF90BF90AF90089546
:10031000089590E080E00895FC0101900020E9F745
:100320003197AF01481B590BBC0181E591E00C945A
:100330005B018F929F92AF92BF920F931F93CF93C7
:10034000DF93CDB7DEB7A1970FB6F894DEBF0FBE2F
:10035000CDBF19A2423008F44AE08E010F5D1F4F55
:10036000842E912CB12CA12CA50194010E94E706AA
:10037000E62FB901CA01EA30F4F4E05DD801EE934A
:100380008D01232B242B252B79F790E080E010970B
:1003900019F0CD010E948C01A1960FB6F894DEBF32
:1003A0000FBECDBFDF91CF911F910F91BF90AF9046
:1003B0009F908F900895E95CE1CFCF93DF93EC019C
:1003C00060E08E810E94A60061E08E810E94A600FE
:1003D00060E08E810E94A6008BE891E00197F1F722
:1003E000DF91CF910895CF92DF92EF92FF920F931A
:1003F0001F93CF93DF936C017C0187E0E80EF11C23
:10040000D0E0C0E0062F10E0B8010C2E02C07595B8
:1004100067950A94E2F76170F70181917F010E946C
:10042000A6002196C430D10579F7C601DF91CF919E
:100430001F910F91FF90EF90DF90CF900C94DD0112
:10044000CF92DF92EF92FF920F931F93CF93DF93A0
:10045000EC01F62E642F8C810E94A6008D818F3FC7
:1004600019F060E00E94A6000F2D10E08F8584FF38
:1004700025C06E0187E0C80ED11CF12CE12CB8011B
:100480000E2C02C0759567950A94E2F76170F6012B
:1004900081916F010E94A600FFEFEF1AFF0A88E02A
:1004A000E816F10461F7CE01DF91CF911F910F9112
:1004B000FF90EF90DF90CF900C94DD01B80184E0C5
:1004C000759567958A95E1F7CE010E94F3016F2D2E
:1004D000CE01DF91CF911F910F91FF90EF90DF90B0
:1004E000CF900C94F30140E0682F81E591E00C94EB
:1004F0002002CF93DF93823029F4909160019860BD
:1005000090936001809364011092650180E4809370
:10051000660180E18093670180E5809368018091A6
:1005200055010E948700809156018F3F11F00E9473
:100530008700809157010E948700C1E5D1E09E01AC
:10054000215531408091600184FD0AC084E090E033
:100550002196281739073CF48E810E948700EFCF3F
:1005600088E090E0F5CF8BE39DE00197F1F760E044
:10057000809155010E94A60060E0809157010E9481
:10058000A600809156018F3F19F060E00E94A600FE
:100590008091600184FD39C063E081E591E00E94B3
:1005A000F301CBE4D6E4CE010197F1F763E081E5F6
:1005B00091E00E94F3012197F1F763E081E591E07A
:1005C0000E94F30183E592E00197F1F762E081E593
:1005D00091E00E94F3018091600180620E947302A9
:1005E00084E0809361018CE00E94730281E00E94AC
:1005F00073028BE39FE10197F1F782E08093620140
:1006000086E0DF91CF910C94730280620E947302A6
:100610008BE496E40197F1F78091600180620E947B
:10062000730283E592E00197F1F7809160018062A7
:100630000E947302D0CF90916401891710F08FEF60
:10064000890FE82FF0E0EF5AFE4F848980680C9400
:10065000730241E00E94200281E090E008951F9221
:100660000F920FB60F9211242F933F938F939F9366
:10067000AF93BF938091490190914A01A0914B01A2
:10068000B0914C013091480123E0230F2D3758F5EC
:100690000196A11DB11D20934801809349019093BB
:1006A0004A01A0934B01B0934C0180914D01909170
:1006B0004E01A0914F01B09150010196A11DB11DB5
:1006C00080934D0190934E01A0934F01B093500140
:1006D000BF91AF919F918F913F912F910F900FBE3E
:1006E0000F901F90189526E8230F0296A11DB11DAB
:1006F000D2CF789484B5826084BD84B5816084BD96
:1007000085B5826085BD85B5816085BD80916E00AF
:10071000816080936E0010928100809181008260E0
:10072000809381008091810081608093810080911D
:1007300080008160809380008091B100846080930C
:10074000B1008091B00081608093B00080917A0008
:10075000846080937A0080917A00826080937A002E
:1007600080917A00816080937A0080917A0080681D
:1007700080937A001092C10082E00E94790288E0A2
:100780000E94870089E00E94870060E088E00E9464
:10079000A60060E089E00E94A60080E00E941B03A2
:1007A0008CE091E00E948C0181E00E941B038AE1B1
:1007B00091E00E948C0160ED77E080E090E00E9483
:1007C000290181E00E9473028BE39FE10197F1F719
:1007D00000E010E08EE00E94F200BC01990F880B4F
:1007E000990B0E94C0052AE038E240EA5BE30E94D0
:1007F000750620E030E048EC52E40E9475066B017B
:100800007C018FE00E94F200EC0180E00E941B035B
:1008100088E291E00E948C01A7019601C701B60110
:100820000E94E206882309F450C08EE291E00E9403
:100830008C018AE391E00E948C0181E00E941B03FD
:100840008DE391E00E948C014E010D2E000CAA0850
:10085000BB084AE0C501B401B7FE0EC041E06DE23D
:1008600081E591E00E94200266277727CB01681975
:1008700079098A099B094AE00E94990183E491E081
:100880000E948C0120E030E04CE052E4C701B60148
:100890000E947006181624F0C935D2400CF4A9C085
:1008A00061E088E00E94A60061E089E00E94A60065
:1008B00068EE73E080E090E00E94290101151105C7
:1008C00009F488CF0E94000085CF46015701E894C3
:1008D000B7F82FEF3FEF4FE75FE7C501B4010E9484
:1008E000E20681110DC02FEF3FEF4FE75FE7C50133
:1008F000B4010E948A0518161CF482E391E097CF98
:100900002FEF3FEF4FE75FE4C701B6010E9470068B
:1009100018161CF486E391E08ACF2FEF3FEF4FE7E4
:100920005FECC701B6010E948A0587FDF3CF20E086
:1009300030E0A901C701B6010E948A0587FF56C0B1
:1009400041E06DE281E591E00E942002C701B6011D
:1009500090582AE037ED43EA5BE30E941E052B0125
:100960003C010E948F054B015C010E94BE059B016A
:10097000AC01C301B2010E941D052B013C014AE0FC
:10098000C501B4010E94990141E06EE281E591E068
:100990000E94200220E030E040E251E4C301B201B5
:1009A0000E9475062B013C010E948F054B01B12C62
:1009B000A12C4AE0C501B4010E949901C501B4010E
:1009C0000E94BE059B01AC01C301B2010E941D053E
:1009D00020E030E040E251E40E9475060E948F055D
:1009E00090E080E04AE00E94990123CFC701B60160
:1009F000B0CF60E088E00E94A60060E056CFE1E55D
:100A0000F1E01382128284E091E09183808387E099
:100A100084838FEF858386E0868385E0878384E007
:100A2000808783E0818782E082871386148615861B
:100A30001686178681E00C9479025058BB27AA27A6
:100A40000E9435050C9436060E94280638F00E9454
:100A50002F0620F039F49F3F19F426F40C94250654
:100A60000EF4E095E7FB0C941F06E92F0E94470661
:100A700058F3BA17620773078407950720F079F4D3
:100A8000A6F50C9469060EF4E0950B2EBA2FA02D56
:100A90000B01B90190010C01CA01A0011124FF272B
:100AA000591B99F0593F50F4503E68F11A16F04026
:100AB000A22F232F342F4427585FF3CF4695379525
:100AC0002795A795F0405395C9F77EF41F16BA0BEA
:100AD000620B730B840BBAF09150A1F0FF0FBB1F98
:100AE000661F771F881FC2F70EC0BA0F621F731FE1
:100AF000841F48F4879577956795B795F7959E3F3E
:100B000008F0B0CF9395880F08F09927EE0F9795CE
:100B1000879508950E94FB0508F481E008950E94DE
:100B20004F0688F09F5798F0B92F9927B751B0F02A
:100B3000E1F0660F771F881F991F1AF0BA95C9F761
:100B400014C0B13091F00E946906B1E008950C9490
:100B50006906672F782F8827B85F39F0B93FCCF343
:100B6000869577956795B395D9F73EF490958095DE
:100B7000709561957F4F8F4F9F4F0895E89409C0FE
:100B800097FB3EF490958095709561957F4F8F4FC0
:100B90009F4F9923A9F0F92F96E9BB279395F695D6
:100BA000879577956795B795F111F8CFFAF4BB0F54
:100BB00011F460FF1BC06F5F7F4F8F4F9F4F16C0B8
:100BC000882311F096E911C0772321F09EE8872F42
:100BD000762F05C0662371F096E8862F70E060E0FE
:100BE0002AF09A95660F771F881FDAF7880F969577
:100BF000879597F90895990F0008550FAA0BE0E81B
:100C0000FEEF16161706E807F907C0F012161306CE
:100C1000E407F50798F0621B730B840B950B39F40E
:100C20000A2661F0232B242B252B21F408950A2674
:100C300009F4A140A6958FEF811D811D089597F9B4
:100C40009F6780E870E060E008959FEF80EC089572
:100C500000240A941616170618060906089500249B
:100C60000A9412161306140605060895092E039415
:100C7000000C11F4882352F0BB0F40F4BF2B11F489
:100C800060FF04C06F5F7F4F8F4F9F4F089557FDE8
:100C90009058440F551F59F05F3F71F04795880FEA
:100CA00097FB991F61F09F3F79F087950895121681
:100CB00013061406551FF2CF4695F1DF08C016162D
:100CC00017061806991FF1CF8695710561050894DE
:100CD0000895E894BB2766277727CB0197F90895F5
:100CE0000E94FB0508F48FEF08950E9488060C947B
:100CF00036060E94280638F00E942F0620F0952321
:100D000011F00C941F060C94250611240C946A060D
:100D10000E94470670F3959FC1F3950F50E0551F51
:100D2000629FF001729FBB27F00DB11D639FAA2740
:100D3000F00DB11DAA1F649F6627B00DA11D661F8F
:100D4000829F2227B00DA11D621F739FB00DA11DB0
:100D5000621F839FA00D611D221F749F3327A00D6A
:100D6000611D231F849F600D211D822F762F6A2F06
:100D700011249F5750409AF0F1F088234AF0EE0F6B
:100D8000FF1FBB1F661F771F881F91505040A9F798
:100D90009E3F510580F00C941F060C946A065F3F3D
:100DA000E4F3983ED4F3869577956795B795F795D4
:100DB000E7959F5FC1F7FE2B880F911D969587954C
:100DC00097F908950E94FB05880B990B0895A1E2FD
:100DD0001A2EAA1BBB1BFD010DC0AA1FBB1FEE1FB5
:100DE000FF1FA217B307E407F50720F0A21BB30B00
:100DF000E40BF50B661F771F881F991F1A9469F77C
:100E000060957095809590959B01AC01BD01CF01D7
:100E10000895EE0FFF1F0590F491E02D0994F894CA
:100E2000FFCF0000000029035B01890188015761A1
:100E3000746572205175616C697479004D6F6E69CB
:100E4000746F72696E672E2E2E0054656D703A00B5
:100E50006E616E00696E66006F7666004320005416
:0A0E60007572623A002020200000A5
:107E0000112484B714BE81FFF0D085E080938100F7
:107E100082E08093C00088E18093C10086E0809377
:107E2000C20080E18093C4008EE0C9D0259A86E02C
:107E300020E33CEF91E0309385002093840096BBD3
:107E4000B09BFECF1D9AA8958150A9F7CC24DD24C4
:107E500088248394B5E0AB2EA1E19A2EF3E0BF2EE7
:107E6000A2D0813461F49FD0082FAFD0023811F036
:107E7000013811F484E001C083E08DD089C08234E0
:107E800011F484E103C0853419F485E0A6D080C0E4
:107E9000853579F488D0E82EFF2485D0082F10E0AE
:107EA000102F00270E291F29000F111F8ED06801E7
:107EB0006FC0863521F484E090D080E0DECF843638
:107EC00009F040C070D06FD0082F6DD080E0C81688
:107ED00080E7D80618F4F601B7BEE895C0E0D1E017
:107EE00062D089930C17E1F7F0E0CF16F0E7DF06D8
:107EF00018F0F601B7BEE89568D007B600FCFDCFD4
:107F0000A601A0E0B1E02C9130E011968C91119780
:107F100090E0982F8827822B932B1296FA010C0160
:107F200087BEE89511244E5F5F4FF1E0A038BF0790
:107F300051F7F601A7BEE89507B600FCFDCF97BE46
:107F4000E89526C08437B1F42ED02DD0F82E2BD052
:107F50003CD0F601EF2C8F010F5F1F4F84911BD097
:107F6000EA94F801C1F70894C11CD11CFA94CF0C13
:107F7000D11C0EC0853739F428D08EE10CD085E9AC
:107F80000AD08FE07ACF813511F488E018D01DD067
:107F900080E101D065CF982F8091C00085FFFCCF94
:107FA0009093C60008958091C00087FFFCCF809118
:107FB000C00084FD01C0A8958091C6000895E0E648
:107FC000F0E098E1908380830895EDDF803219F02E
:107FD00088E0F5DFFFCF84E1DECF1F93182FE3DFCA
:107FE0001150E9F7F2DF1F91089580E0E8DFEE27F6
:047FF000FF270994CA
:027FFE00040479
:00000001FF
